:020000040000FA
:1000000000040020AD0000006D0E0000D1090000CA
:10001000FFFFFFFFFFFFFFFFFFFFFFFFFFFFFFFFF0
:10002000FFFFFFFFFFFFFFFFFFFFFFFF311100009A
:10003000FFFFFFFFFFFFFFFF25100000DD140000A2
:10004000BF000000BF000000BF000000BF000000B4
:10005000BF000000BF000000BF000000FFFFFFFF67
:10006000BF000000FFFFFFFFBF000000FFFFFFFF1A
:10007000D9070000BF000000BF000000BF00000063
:10008000BF000000A9010000BF000000BF00000089
:10009000BF000000BF000000BF0000007D1800008E
:1000A000FFFFFFFFE51700003918000004488047F4
:1000B00004480047FEE7FEE7FEE7FEE7FEE7FEE74F
:1000C000E1140000C90000000348854600F01CF858
:1000D00000480047451D00000004002030B50B46D5
:1000E000014600202022012409E00D46D5409D4212
:1000F00005D31D469540491B254695404019154698
:10010000521E002DF1DC30BD064C0125064E05E0E7
:10011000E36807CC2B430C3C98471034B442F7D328
:10012000FFF7D6FF0C1F00002C1F0000F0B596460D
:100130000A461349C000461800230025FF209840B6
:100140002C46104216D00020012199408C461146C1
:10015000C1406746394206D087000F21B9400D43A0
:100160007146B9400C43401C0828F0D33068A843BE
:10017000204330600833361D082BDEDDF0BD000063
:1001800020200240F8B516460D460024054F05E034
:10019000297838466D1C01F0B2FB641CB442F7DBD1
:1001A0000120F8BD0010004070B5144A10780221FB
:1001B00008431070124C134B2078FF26401CC0B22D
:1001C00020701988F536491C89B200251980B14282
:1001D00009D91D8011780423194311700A490B6A4B
:1001E000082633430B62192804D3257010780121A7
:1001F00008431070054800F00BF870BD02000020A5
:10020000090000200000002000200B400060074093
:100210004168490849004160BFF34F8F70470000B3
:1002200010B503460022084C10460146A34202D1F5
:100230000122120404E0054CA34201D10122520420
:10024000012300F047FF10BD006007400070074029
:1002500004220029016801D0114300E091430160AC
:1002600070470029016802D00122114301E04908CA
:10027000490001607047C16070478160704770B588
:10028000054600290AD00C78204600F053FF0121D2
:10029000204601F0B9FD012D02D005E0002070BD1F
:1002A0000121204601F0D0FD012070BD10B50F20C6
:1002B0004F2100040902024A012300F0AFF810BDEB
:1002C0005101010003498968014201D001207047B2
:1002D000002070470080084070B5184D0446686BD8
:1002E0004607760F00F02EF815492060330001F024
:1002F00085FC081405070714140E1114606000E053
:100300006160296A6068052909D3400908E0012075
:10031000C003F3E77D200002F0E70020EEE7C840CD
:10032000A060A96A4903490F072902D0C840E060CC
:1003300070BD0321FFF7D2FEF9E7000000800840FE
:1003400000127A0010B50D4A1068D0690121C30F60
:100350005068400A08400FD00948002B0CD193691F
:10036000DB0D1C07240F00D1102492695202920F5A
:100370009140FFF7B3FE604310BD000000800840CD
:1003800000127A001FB541090A4A89008A18002123
:100390002E2800D10221C006C00E1268032383401C
:1003A0001A40C24054186846FFF796FF029804B0FE
:1003B000E04010BD388008400248406B4007400FC5
:1003C000704700000080084004494A680123DB02AE
:1003D0009A43C00202434A60704700000080084010
:1003E00003494A684B159A43400202434A607047EA
:1003F0000080084008490A688B159A4303791B025C
:100400001A430A60CA69437952005208DB071A434B
:10041000CA6100688861704700800840F0B5084FE5
:100420007C6AFD6A3E6B84438D439643002B02D069
:1004300004430D4316437C62FD623E63F0BD000041
:1004400000800840014908627047000000800840B1
:10045000024600B50848FF214368DB08DB00134370
:10046000436005E0FFF7A8FF904201D1012000BDE5
:10047000491EF7D1002000BD0080084010B5FF21C3
:10048000212000F01FFC10BD10B500F0E9FF10BDE9
:1004900010B5002909D00C78204600F05DFE01213E
:1004A000204601F0C7FA012010BD002010BD10B594
:1004B000002909D00C78204600F050FE012120468A
:1004C00001F0D8FA012010BD002010BD00B50E4883
:1004D000407800F053FE002000F068FE0B48016AEF
:1004E0000122D2039143016209490A6A520852006B
:1004F0000A62026A01239B031A430262086A02220B
:100500001043086200BD0000F401002000000B4011
:1005100000200B4003490A68D208D20002430A6057
:100520007047000000020840F0B403460C79C87818
:10053000032C17D10C4C4E79A34213D10B4D002341
:10054000DC002C5DFF2C0DD0B44208D1DB005B1920
:100550005B68002B06D0F0BC891D083A18475B1C6D
:10056000DBB2EDE7F0BC7047EC0000200C0000208F
:1005700070B50E4D6879012802D00B2810D011E01B
:100580000B4C2078012809D001202070C0B201F066
:10059000EBF82078002101F077FC03E00020F4E77D
:1005A00000F01CFE3220687170BD000002000020C7
:1005B000F4010020002A026801D00A4300E08A43C7
:1005C00002607047F0B5002425462346CE0706D0CA
:1005D0005E001746B7403C430327B7403D434908F8
:1005E0005B1C102BF2D34169A9434161416921434E
:1005F0004161F0BDF8B5012210211046FFF796FDCC
:10060000012208211046FFF791FD5D4C02221021C6
:10061000204600F0C1F802220821204600F0BCF874
:10062000002210212046FFF7CDFF0022082120469E
:10063000FFF7C8FF012210212046FFF7BBFF012270
:1006400008212046FFF7B6FF0122D60331460020DD
:10065000FFF76CFD012211461046FFF767FD0122EE
:10066000970339460020FFF761FD01220221104661
:10067000FFF75CFD434D02223146284600F08CF81E
:1006800002220121204600F087F80222394628463E
:1006900000F082F802221146204600F07DF8002288
:1006A00031462846FFF78EFF002201212046FFF742
:1006B00089FF002239462846FFF784FF00220221E5
:1006C0002046FFF77FFF012231462846FFF772FFE1
:1006D000012211462046FFF76DFF012239462846C8
:1006E000FFF768FF012202212046FFF763FF012286
:1006F00051021046FFF71AFD02221102204600F0B7
:100700004BF8002261152046FFF75CFF00226115BF
:100710002046FFF74FFF01225102204600F034F837
:10072000012291021046FFF701FD0022211520460B
:1007300000F032F8002221152046FFF743FF012286
:1007400091022046FFF736FF01229102204600F079
:100750003DF8286AB0432862206A400840002062C1
:10076000286AB8432862206A022188432062206AEE
:10077000102108432062206A082108432062F8BD46
:1007800000200B4000000B40002A426801D00A43C1
:1007900000E08A4342607047002A08D0012A09D04D
:1007A00082688A438260C2688A43C26070478268F6
:1007B0000A43F7E7C2680A43C26082688A438260DC
:1007C0007047C069084000D001207047002A01D05E
:1007D000416270478162704710B50B4C082120467A
:1007E00000F040FF00280DD00821204600F028FF2F
:1007F000204600F034FF05490988401881B22046A0
:1008000000F08EFF10BD000000E006403C0000201C
:10081000F0B500250122920789B028462C46111414
:100820000123FFF7FBFDFF2701370D22394600208A
:10083000FFF77CFC2148224E089000E0641C611CFC
:100840000898FFF74BFCB042F8D8611C0898FFF7F6
:1008500045FC0646042240210120FFF767FC711E7B
:1008600068460182448205750695164C878304A963
:10087000204600F059FF3946204600F0DCFE0321F7
:100880006846017006214180012101714571857121
:10089000C57105724172701C432148436421FFF702
:1008A0001DFC0146684641816946204600F0E6FE8F
:1008B0000121204600F0C9FE09B0F0BD7F0700000D
:1008C000FFFF000000E00640002809D0FF300130A3
:1008D00001684068814204DDFF22511A491C40181A
:1008E0007047401A7047000010B5114C2046FFF7C2
:1008F00097FC10487D21C9000068FFF7EFFB014617
:100900002046FFF7B8FC00212046FFF7B6FC012186
:100910002046FFF7A6FC01212046FFF799FC0121A4
:100920002046FFF79EFC012003494004086010BDEB
:10093000006007404000002000E100E030B58FB0CB
:10094000042280210120FFF7F1FB1F4968468185C1
:100950000024C48508A80474FF21013168460D9461
:1009600001871A4D0BA9284600F0DEFE01216846DA
:1009700001770622C28308A8017044708470C47095
:10098000047141716846C48407A9284600F076FEC8
:1009900001204005009040100190C01002902020DE
:1009A0000590039404946846047644766946284684
:1009B00000F0F4F90121284600F047FE0121284605
:1009C00000F000FA0FB030BD7F07000000C0024009
:1009D000FEE7000010B5104C002201212046FFF771
:1009E000F5FE012202212046FFF7E4FD002202214C
:1009F0002046FFF7EBFE022001F063F901221146C9
:100A00002046FFF7E3FE022001F05BF900220121FE
:100A10002046FFF7DBFE10BD00000B4010B5104C68
:100A2000002201212046FFF7D1FE012202212046AB
:100A3000FFF7C0FD012202212046FFF7C7FE02207A
:100A400001F03FF9012211462046FFF7BFFE0220C8
:100A500001F037F9002201212046FFF7B7FE10BD53
:100A600000000B4010B5044600F08AF8B42000F0F6
:100A700053F800F0CDF8204600F04EF800F0C8F82A
:100A800000F07EF8B52000F047F800F0C1F8002033
:100A900000F006F8044600F097F8204610BD00006C
:100AA000F8B51C4E07460024224602213046FFF7C7
:100AB00081FD012202213046FFF766FE002500225B
:100AC00001213046FFF782FE022001F0FAF80122F0
:100AD00011463046FFF77AFE022001F0F2F8600678
:100AE000040E02213046FFF76CFE002801D0641C82
:100AF000E4B2012001F0E5F86D1CEDB2082DDED363
:100B0000002F03D0FFF766FF2046F8BDFFF786FFF2
:100B1000FAE7000000000B4070B5184E05460122B0
:100B200002213046FFF746FD002201213046FFF743
:100B30004DFE0024E80901D0012200E0002202213C
:100B40003046FFF743FE6806050E022001F0B9F8B3
:100B5000012211463046FFF739FE022001F0B1F8BC
:100B6000002201213046FFF731FE022001F0A9F8F2
:100B7000641CE4B2082CDDD370BD000000000B4003
:100B800010B5104C012202212046FFF71FFE012262
:100B900011462046FFF71AFE012202212046FFF7E8
:100BA00009FD042001F08DF8002202212046FFF704
:100BB0000DFE042001F085F8002201212046FFF7F8
:100BC00005FE10BD00000B4010B5104C01220221A3
:100BD0002046FFF7EFFC002201212046FFF7F6FD3B
:100BE000002202212046FFF7F1FD042001F069F800
:100BF000012211462046FFF7E9FD0122022120468D
:100C0000FFF7E4FD042001F05CF810BD00000B408C
:100C100070B5194D0024224602212846FFF7CAFC70
:100C2000012202212846FFF7AFFD012202212846BA
:100C3000FFF7CCFD012001F044F8012211462846BF
:100C4000FFF7C4FD012001F03CF807E0641CE4B2AA
:100C5000FA2C03D9FFF7B8FF012070BD0221284606
:100C6000FFF7AFFD0128F1D0002201212846FFF750
:100C7000ADFD002070BD000000000B40F8B5164629
:100C80000F460546FFF77CFFB420FFF745FFFFF74F
:100C9000BFFF04462846FFF73FFFFFF7B9FF0019E3
:100CA000C5B2002408E0385DFFF736FFFFF7B0FF5C
:100CB0004019641CC5B2E4B2B442F4D3FFF784FF18
:100CC0002846F8BD70B50D460446FFF759FFB4201D
:100CD000FFF722FFFFF79CFF2046FFF71DFFFFF7FE
:100CE00097FF2846FFF718FFFFF792FFFFF76CFF0B
:100CF00070BD00001D480021C069800500D401219D
:100D00001B4A0020135C8B4203D0401CC0B2022857
:100D1000F8D30023174A002809D19178491E1829D1
:100D200001D2117951719370537032211171D178C0
:100D3000814217D15178491CC9B25170502913D33F
:100D4000537091781A2901D2491C9170C9B20129B6
:100D500002D0192902D007E0107105E001460A31DE
:100D6000517101E093705370D070704700200B40B8
:100D7000081F00000200002010B500F0A9F80028AC
:100D8000FBD100F099F8012000F088F8032040041E
:100D900000F0C2F8012000F0B1F810BD10B54A7E95
:100DA0000B7E12021B0613430C688A6822434C68B0
:100DB0001C4322430C69CB684969234311430B430D
:100DC000036710BD10220029016F01D0114300E01C
:100DD000914301677047F0B5059F079D069C002869
:100DE00020D0F1260670F22646702E460836867010
:100DF000C270D218D219037152190832D3B2477196
:100E00000022801D07E0277807702778401CFB1818
:100E1000521CDBB2641CAA42F5DB0370F92242705B
:100E200001200E60F0BD000010B50D4800F066F91D
:100E30000B48533000F062F90A490020088188808D
:100E40000949322248708870C8700A714A718871E5
:100E5000C87108724872087000F064FF10BD00008D
:100E600044000020F401002002000020704770B50B
:100E7000054600290AD00C78204600F075FC0121B7
:100E8000204601F001F8012D02D005E0002070BDE0
:100E90000121204601F018F8012070BD0549002805
:100EA000086902D00122104301E0400840000861B7
:100EB0007047000000A1064004490222002808698A
:100EC00001D0104300E090430861704700A1064044
:100ED000084A074801211160074902E08A68272A69
:100EE00003D0401EFAD10120704700207047000057
:100EF00000366E010083084000A10640012205492A
:100F000012040028086901D0104300E090430861F2
:100F10007047000000A10640034A116923235B04C7
:100F2000994301431161704700A10640F0B50021CB
:100F3000BDB004460E46002832D0E21DF93205CA83
:100F400090422DD082422BD0235CFF2802D0F12B7F
:100F500009D00FE0F12B0DD12378F22B0AD10746EF
:100F60000121002006E023185B78F22B02D107460E
:100F7000401C0121824213D0401CFF2800DD0020CC
:100F800082420DD00129DFD1255C29460839E829A4
:100F900001D30021D8E72046FFF796FCA84202DAE9
:100FA00000203DB0F0BD012000902B4601AA39463B
:100FB000204600F038F80028F3D001AA5019203854
:100FC000C07FF92803D000200223009023E00220F4
:100FD000A91E03E0135C9B19DEB2401C8842F9DBBA
:100FE000105CB04214D1002000902B4639462046B8
:100FF00000F019F80028D4D00948016A082291436A
:1010000001622A4601A92046FFF78EFA0120C8E7AF
:1010100000202B4600903946204600F004F8F5E702
:1010200000200B407047F0B5059F00281DD0002A16
:101030001AD0C61DF93635687468AC4214D0AC427B
:1010400004DD8D4210DC8C420EDD0AE08C4201DCB6
:101050008D4209DC8C4204DAFF256D1A6D1C64197F
:1010600000E0641A9C4201DA0020F0BD002407E091
:10107000455C1570491C521CFF2900DD0021641CD1
:101080009C42F5DB002F00D131600120F0BDF0B5AE
:10109000944600281CD00024C31D2246F93315E0D5
:1010A0005D68FF2D03DB0E7846555A6003E00F782C
:1010B0006E1C5E6047555E681D68491CAE4204D1D7
:1010C0006D1C1D60FF2D00DD1A60641C6445E7DBAC
:1010D000F0BD0000F0B5084F7C68BD68FE68844331
:1010E0008D439643002B02D004430D4316437C608E
:1010F000BD60FE60F0BD00000081084000210B468D
:101100004354421853762032491CC9B293741929AA
:10111000F6D34030C372037343738373C373037492
:1011200043748374704710B5FFF79CFCC0B210BDC8
:101130007047000000B507490A78012A05D14870B8
:101140008878642802D9FFF7C1F900BD00F034FDAA
:1011500000BD0000F40100207047000000B5064902
:101160000A78012A04D18870642802D9FFF7AEF901
:1011700000BD00F021FD00BDF40100200949002858
:1011800009D01322504314301B229201088190424F
:1011900003D90A8101E0002088800889024948615A
:1011A00070470000F401002080C002400949002877
:1011B00009D01322504314301B22920188809042A0
:1011C00003D98A8001E00020088188880249C8612B
:1011D00070470000F401002080E0064070B59EB02A
:1011E000012269460A7303A906206C4607C402233C
:1011F00003221DA904A8FFF7EEFD002404AD064E4E
:1012000004E0295D304600F07AFB641C1D9884429E
:10121000F7DB1EB070BD00000010004010B50122C9
:1012200011463248FFF7C6F900210820FFF74AFDB2
:1012300000210920FFF746FD00F0D0F81721072014
:10124000FFF740FD06210F20FFF73CFD01210B2099
:1012500000F05BF804210C2000F057F80121022077
:1012600000F053F80321072000F04FF80021082078
:1012700000F04BF80021092000F047F8002112206F
:1012800000F043F80121112000F03FF800211F2059
:1012900000F03BF801211E2000F037F803210E205A
:1012A00000F033F83121012000F02FF80121032054
:1012B000FFF708FD1D210420FFF704FD0021052094
:1012C000FFF700FD00210620FFF7FCFCB9210820F4
:1012D000FFF7F8FC08210920FFF7F4FC08210A2099
:1012E000FFF7F0FC00F075F8002010BD00000B4087
:1012F000C006C00E10B58030C0B200F09BFC0028C4
:1013000002D12E20FFF7AEFB10BDF8B50D46064604
:1013100000F0C5FC002822D12020FFF7A3FB0446E3
:10132000F0066946C00E0D70A030487002221720EA
:10133000FFF7A4FC050012D12020FFF793FB014624
:1013400008E02020FFF78EFB0146A04202D10120D9
:1013500000F06AF9A142F4D0002D01DA2846F8BD68
:101360000020F8BD70B53020FFF77CFB012803D0CA
:10137000012000F059F9F6E7002500242020FFF7AE
:1013800071FB00280AD000211820FFF79BFC641C89
:10139000E4B2012000F048F9C82CEFD30B2000F094
:1013A00049FC00242020FFF75DFB002806D1641CC7
:1013B000E4B2012000F038F9C82CF3D32020FFF765
:1013C00051FB012803D06D1CEDB2C82DD5D30020F0
:1013D00070BD10B50F2000F02DFC10BD10B50A2017
:1013E00000F022F90A2000F01FF900210820FFF781
:1013F00069FC044600210920FFF764FC0419FFF78B
:10140000B1FF041900210820FFF75CFC041900213A
:101410000420FFF757FC041900210520FFF752FCB8
:10142000041900210620FFF74DFC041900210320B8
:10143000FFF748FC0419FF212120FFF743FC0419A2
:1014400001211820FFF73EFC04190A2000F0ECF8F7
:1014500017210720FFF736FC001900B210BD00006D
:101460001CB51C4800240462652141620121090465
:101470008162C46204638463C46317480460446087
:101480000120FEF7A1FF0820FEF71CFF0028FAD07C
:101490000320FEF7DDFF01206946087103200006E6
:1014A00000904C716846FEF7A5FF0120FEF798FFFB
:1014B0000220FEF707FF0028FAD00220FFF72AF8E3
:1014C0000020FEF7BFFF0120FEF7C2FF0128FAD17E
:1014D0001CBD0000008008400083084070470000E9
:1014E000F0B546480169002908D14169002905D1B4
:1014F0008169002902D1C069002877D0404B186B60
:1015000010252843186340483E490161816805223F
:101510000905090D1203891881603C494160186B67
:10152000A84318633A4901200860186B40263043ED
:101530001863384881682729FCD158680121C902FD
:10154000084358609868C008C007FBD05868C008B6
:10155000C000C01C5860586B4007400F0328FAD1E8
:101560002D4C2068C008C000401C2060002018627C
:1015700059686015814359601868A7153843186089
:10158000264808228168914381608168C908C9079B
:10159000F8D1186BB04318631868384318600520F9
:1015A000C00598615868012149020843586098684D
:1015B0004008C007FBD02068C008C000801C206025
:1015C000002018625868C008C000401C5860586B62
:1015D0004007400F0128FAD120682843206058684E
:1015E0000121890288435860F0BDFFE7BFF34F8FA8
:1015F0000C490B48C860BFF34F8FFEE7000308405B
:1016000000800840CA35000000800640D0A70000D6
:101610000083084000A106400002084000A00640E8
:101620000400FA0500ED00E064300006000E01D071
:10163000401EFAE77047C943C167BFF34F8F704739
:10164000C943C167BFF34F8F70470029016902D0BA
:101650000122114301E049084900016170478030CF
:10166000C0697047C26F406F0A400840002A03D02B
:10167000002801D00120704700207047F0B50C7899
:10168000A200121815461346A03290359446620601
:101690004033AE46120E03249440204DE443A8424A
:1016A00002D001249440E4431C4E056D254005659D
:1016B000456D2540B0428E7902D1CF797F003E43FF
:1016C00096402E434665154FB84208D1C66E4D7AF6
:1016D00026400C7A6D002C4394403443C4661C6849
:1016E000FF250835AC431C601C684D882C431C60EA
:1016F0004C8973461C608C8963461C60B84206D1D5
:101700000B79497949000B439340016D02E0036D69
:10171000097991400B430365F0BD000000C0024011
:101720008030C1617047000010B502460B888032DE
:1017300093604B885360036803242404A34303602D
:10174000036801242406A343036003688C682343D1
:101750000360044B984201D10B79D360898981677A
:1017600010BD000000C0024030B51B4A02231070BB
:1017700000280CD05078002800D15370907864284D
:10178000507801D96430C0B2FFF7E8FC30BD13488F
:10179000016A0124E403A143016211490C6A64084F
:1017A00064000C62046A0125AD03AC430462086A5C
:1017B000984308629088002800D0D08010890028C3
:1017C00000D05081002090801081FFF7EFFC0020B6
:1017D000FFF7D4FC30BD0000F401002000000B40F6
:1017E00000200B4010B50E4C2021204600F04BF895
:1017F000002814D02021204600F041F8204600F0B7
:101800007BF80849CB7A0A46273A98540120887415
:101810000020C873C87A192801D2401CC87210BDB4
:10182000001000408400002010B50146014800F07F
:1018300066F810BD0010044010B50E4C2021204663
:1018400000F021F8002814D02021204600F017F8DD
:10185000204600F051F80849CB7A0A46273A9854B6
:10186000012088740020C873C87A192801D2401C4E
:10187000C87210BD00100440D700002070470269F4
:101880000A40026170470069084000D0012070479B
:1018900070B504460D46C88889886268084329895E
:1018A0000E4B1A40114308436989084360600120C8
:1018B0008007844201D1182003E00948844207D1FF
:1018C0001C20FEF75FFD2968FEF708FC606270BD12
:1018D00004488442FBD11E20F3E70000FCE0FFFF38
:1018E0000010004000100440002AC26801D00A43E2
:1018F00000E08A43C2607047006880B2704710B54C
:101900000446016001E000F031F92169C905FAD50A
:1019100010BD10238B404168002A01D0194300E01C
:10192000994341607047000014480022817C0129DE
:1019300001D0C2730CE0C17BFF2901D2491CC173E5
:10194000C9B2632904D9C17A4174C272C273827464
:101950000A485330817C012901D0C2737047C17B92
:10196000FF2901D2491CC173C9B26329F6D9C17AD2
:101970004174C272C27382747047000084000020F8
:10198000FEB5062240210220FEF7D0FB0622802170
:101990000220FEF7CBFB062210210020FEF7C6FB3B
:1019A000062220210020FEF7C1FBE1267602FF2758
:1019B00001376846009687800024C48004811A4D50
:1019C000448169462846FFF763FF012211462846F5
:1019D000FFF78AFF012200212846FFF79AFF012224
:1019E00011462846FFF795FF6803104D28606846AA
:1019F00000968780C480048144810D4C694620464E
:101A0000FFF746FF012211462046FFF76DFF012236
:101A100000212046FFF77DFF012211462046FFF7F7
:101A200078FFA0032860FEBD0010004000E100E048
:101A30000010044070B59EB06A46107351730222C4
:101A400003A929206C4607C4134603221DA904A834
:101A5000FFF7C1F9002404AD054E04E0295D3046CE
:101A6000FFF74DFF641C1D988442F7DB1EB070BD6C
:101A70000010004070B59EB06A4610735173022288
:101A800003A92A206C4607C4134603221DA904A8F3
:101A9000FFF7A1F9002404AD054E04E0295D3046AE
:101AA000FFF72DFF641C1D988442F7DB1EB070BD4C
:101AB0000010004010B5084C627C002A0AD0214674
:101AC00027390648FFF7E3FA0448FFF72FFA002802
:101AD000FAD1607410BD000084000020EC000020EA
:101AE00010B5084C617C00290AD0214640390818FD
:101AF000417E203081740448FFF701FF00206074AC
:101B000010BD0000D70000200010044010B50320D5
:101B1000400300F03DF8322000F044F800F026F8D1
:101B2000322000F02BF8012000F012F8012000F024
:101B300001F810BD0122054912040028486801D0AF
:101B4000104300E09043486070470000008006406A
:101B50000349002801D0034800E0034808617047AA
:101B60000080064035CA0000CA350000024901481D
:101B7000086070470100A05F00800640034A91683A
:101B800007231B0319400143916070470080064002
:101B900003498A681205120D02438A6070470000EB
:101BA00000800640034A51680F231B03194001437C
:101BB000516070470080064000B50020FFF7DEFA54
:101BC0000B484078FFF7F2FA0A48016A0122D20373
:101BD0001143016208490A6A01231A430A62026A30
:101BE0009B039A430262086A02229043086200BD86
:101BF000F401002000000B4000200B4030B474467C
:101C0000641E2578641CAB4200D21D46635D5B00F8
:101C1000E31830BC184702E008C8121F08C1002AA8
:101C2000FAD170477047002001E001C1121F002A5D
:101C3000FBD1704770B5064600252020FEF712FF45
:101C400004002BD400F02BF840B2002826D1002E3F
:101C50000BD02020FEF706FFA04206D000281DDB97
:101C60006D1CEDB20446C82DECD331461820FFF7A9
:101C700029F840B2002811D10025002E0DD02020D7
:101C8000FEF7F0FEA04208D1002807DB6D1CEDB284
:101C90000120FFF7C9FCC82DEFD3002070BD10B59F
:101CA00000243020FEF7DEFE012808D0002807DBE4
:101CB000641CE4B20120FFF7B7FCC82CF1D300206C
:101CC00010BD00BF00BF00BF00BF00BF00BF00BF0E
:101CD00000BF00BF00BF00BF00BF00BF00BF00BF0C
:101CE00000BF00BF00BF00BF00BF00BF00BF00BFFC
:101CF00000BF00BF00BF00BF00BF00BF00BF00BFEC
:101D000000BF00BF00BF00BF00BF00BF00BF00BFDB
:101D100000BF00BF00BF00BF00BF00BF00BF00BFCB
:101D200000BF70470020054A01461154401CFF289F
:101D3000FBDD03480160416070470000EC000020BB
:101D4000EC01002008B5FEF79FFBFEF7AFFAFFF7A6
:101D500013F8FFF769F8FEF74DFCFFF711FEFFF7E8
:101D6000D5FEFFF75BFAFEF7BFFDFEF7E7FDFEF7D6
:101D70004FFDFFF7FBFE00271F4EFFF7F7FE1F4842
:101D800007703078800707D53078FD210840307023
:101D9000FEF7B0FFFFF7C8FDFEF7EAFB307840071B
:101DA00025D53078FB21084030702620FFF7A0FAB7
:101DB0002720FFF79DFA2620FFF7B5F9C4B2684641
:101DC00004702720FFF7AFF9C5B268464570AA2016
:101DD000FFF72AFD2846FFF727FD2046FFF724FDE1
:101DE000074801780748FFF78AFDFEF747FBFFF732
:101DF00061FEFFF775FEC0E7020000200B00002027
:101E0000070000200010044070B59EB06A461073B1
:101E10005173022203A924206C4607C413460322EF
:101E20001DA904A8FEF7D7FF002404AD054E04E069
:101E3000295D3046FFF763FD641C1D988442F7DB83
:101E40001EB070BD0010004070B59EB06A461073A1
:101E50005173022203A924206C4607C401230322E4
:101E60001DA904A8FEF7B7FF002404AD054E04E049
:101E7000295D3046FFF743FD641C1D988442F7DB63
:101E80001EB070BD0010004070B59EB06A46107361
:101E90005173022203A923206C4607C41346032270
:101EA0001DA904A8FEF797FF002404AD054E04E029
:101EB000295D3046FFF723FD641C1D988442F7DB43
:101EC0001EB070BD0010004070B59EB06A46107321
:101ED0005173022203A923206C4607C40123032265
:101EE0001DA904A8FEF777FF002404AD054E04E009
:101EF000295D3046FFF703FD641C1D988442F7DB23
:101F00001EB070BD00100040000100002C1F00003A
:101F10000000002044000000161C0000701F00009C
:101F200044000020BC030000261C0000000000004C
:101F30000000000000000000200000006F0E000004
:101F4000210000007F020000270000009104000033
:101F500028000000AF04000002000000850100001E
:101F6000FF0000000000000000000000006CDC0228
:04000005000000AD4A
:00000001FF
