:020000040000FA
:1000000008020020C1000000BF040000BD04000081
:10001000FFFFFFFFFFFFFFFFFFFFFFFFFFFFFFFFF0
:10002000FFFFFFFFFFFFFFFFFFFFFFFF35050000A2
:10003000FFFFFFFFFFFFFFFFE104000037050000A7
:10004000D3000000D3000000D3000000D300000064
:10005000D3000000D3000000D3000000D300000054
:10006000D3000000FFFFFFFFD3000000D30000001B
:10007000D3000000D3000000D3000000FFFFFFFF0B
:10008000FFFFFFFFD3000000D3000000D3000000FB
:10009000D3000000D3000000D3000000D300000014
:1000A000D3000000D3000000D3000000D300000004
:1000B000D3000000D3000000D3000000D3000000F4
:1000C0000448804704480047FEE7FEE7FEE7FEE7F6
:1000D000FEE7FEE739050000DD0000000348854625
:1000E00000F04CF800480047B10A00000802002068
:1000F00030B50B46014600202022012409E00D46C0
:10010000D5409D4205D31D469540491B2546954047
:1001100040191546521E002DF1DC30BDF0B51FB45C
:100120000646002082B005464024019100901BE065
:10013000019922460F46304600F042F8049A059B8A
:10014000801A994110D310461946224600F028F82B
:10015000361A8F410197224601200021009F00F0AE
:100160001FF838184D4100902046641E0028DFDC3F
:10017000019B00982946324607B0F0BD064C012588
:10018000064E05E0E36807CC2B430C3C984710343F
:10019000B442F7D3FFF7A6FFC80B0000E80B00003E
:1001A00010B5202A04DB0146203A9140002010BD02
:1001B000914020239C1A0346E3401943904010BD10
:1001C00010B5202A04DB0846203AD040002110BD9B
:1001D0000B46D340D0402024A21A91400843194630
:1001E00010BD0000F0B596460A461349C0004618F7
:1001F00000230025FF2098402C46104216D00020F6
:10020000012199408C461146C1406746394206D0CB
:1002100087000F21B9400D437146B9400C43401C83
:100220000828F0D33068A843204330600833361DD7
:10023000082BDEDDF0BD00002020024010B50020BC
:100240004F2109020123024600F072F810BD0000A0
:1002500070B5184D0446686B4607760F00F02EF80F
:1002600015492060330000F08DFA081405070714C3
:10027000140E1114606000E06160296A606805294D
:1002800009D3400908E00120C003F3E77D20000204
:10029000F0E70020EEE7C840A060A96A4903490FD3
:1002A000072902D0C840E06070BD0321FFF720FF9E
:1002B000F9E700000080084000127A0010B50D4AEE
:1002C0001068D0690121C30F5068400A08400FD060
:1002D0000948002B0CD19369DB0D1C07240F00D1BA
:1002E000102492695202920F9140FFF701FF604380
:1002F00010BD00000080084000127A001FB54109BF
:100300000A4A89008A1800212E2800D10221C0063D
:10031000C00E1268032383401A40C2405418684636
:10032000FFF796FF029804B0E04010BD3880084007
:10033000F0B5084F7C6AFD6A3E6B84438D4396435B
:10034000002B02D004430D4316437C62FD623E63E2
:10035000F0BD000000800840002A026801D00A4376
:1003600000E08A4302607047F0B50024254623462A
:10037000CE0706D05E001746B7403C430327B74080
:100380003D4349085B1C102BF2D34169A9434161ED
:10039000416921434161F0BD002A08D0012A09D0FA
:1003A00082688A438260C2688A43C26070478268FA
:1003B0000A43F7E7C2680A43C26082688A438260E0
:1003C0007047000070B50D46114900014418002027
:1003D0002121490201230246FFF7AAFF227AE18880
:1003E0002079FFF7FFFEA27BA189A07AFFF7FAFE32
:1003F0002946206800F054F901220021206800F00D
:1004000084F901221146206800F07FF970BD0000D8
:10041000B80B0000F8B5054613481349465D68005F
:1004200010310C5A08460D38475DB0000C310858A1
:100430000090304600F073F93A4621463046FFF707
:10044000D1FE284600F012F8214602220098FFF75C
:10045000A3FF214601220098FFF786FF21460122D3
:100460000098FFF779FFF8BD8C0B0000044A4100AB
:10047000515A103A105C80001C321058416270478B
:100480009C0B0000044A4100515A103A105C800055
:100490001C321058816270479C0B00000649095CB1
:1004A0008A0005491C3189580A6A034B4000103301
:1004B000185A42400A6270478C0B0000FEE77047F2
:1004C00010B50021084600F001F810BD024A1140A5
:1004D000014302488160704780FFFF1F00ED00E08C
:1004E00070470EB5E12040020090FF2001306946C0
:1004F00088800020C88008814881FFF763FF0EBD17
:100500007047000010B5054C2021204600F0C2F8CD
:100510000028F9D0204600F0F5F810BD0000044096
:100520000349C2B20A600A69D205FCD570470000CF
:100530000000044070477047F0B54B48016900293E
:1005400008D14169002905D18169002902D1C0691A
:1005500000287DD0454B186B10252843186345486B
:1005600043490161816805220905090D12038918B3
:10057000816041494160186BA84318633F490120DD
:100580000860186B4026304318633D48816827296E
:10059000FCD158680121C902084358609868C00816
:1005A000C007FBD05868C008C000C01C5860586B1A
:1005B0004007400F0328FAD1324C2068C008C00021
:1005C000401C20600020186258686715B8435860C6
:1005D0001868A115084318605868890008435860D6
:1005E00098688008C007FBD027480822816891439B
:1005F00081608168C908C907F8D1186BB0431863D6
:100600001968FF20013081431960032000069861BA
:1006100058683843586098684008C007FBD0206885
:10062000C008C000801C2060002018625868C00804
:10063000C000401C5860586B4007400F0128FAD199
:10064000206828432060206801210903084300E056
:1006500001E02060F0BDBFF34F8F0D490B48C8602B
:10066000BFF34F8FFEE70000000308400080084002
:10067000CA35000000800640D0A700000083084073
:1006800000A106400002084000A006400400FA0550
:1006900000ED00E00069084000D001207047000034
:1006A00070B504460D46C888898862680843298960
:1006B000104B1A40114308436989084360600120C8
:1006C0008007844201D1182003E00B48844207D1FF
:1006D0001A20FFF713FE2968FFF70AFD606270BD5C
:1006E0000648844201D11C20F3E705488442F6D134
:1006F0001E20EEE7FCE0FFFF000004400010004079
:1007000000100440006880B2704710238B4041689D
:10071000002A01D0194300E099434160704708B5B1
:10072000002201216B460092195418784904C00731
:10073000C00B88435978C907890B084301218904F4
:1007400088439978C907490B08430121C9048843A4
:10075000D9780123C907090B084301218903FFF751
:10076000E7FD08BD0FB410B503A9044B044A029875
:1007700000F024F810BC08BC04B01847A10A00001F
:100780000000002030B47446641E2578641CAB421F
:1007900000D21D46635D5B00E31830BC184702E0E1
:1007A00008C8121F08C1002AFAD1704770470020FC
:1007B00001E001C1121F002AFBD17047FFB58FB0C5
:1007C0000F460446002606E025280AD0129A119901
:1007D0009047641C761C20780028F5D1304613B071
:1007E000F0BD00250121A14A009500E00543641CED
:1007F00023780846203B98401042F7D120782E28D5
:1008000015D1042005436078641C2A280AD101CF41
:10081000641C00900BE000990A22514330394018C3
:10082000641C00902078014630390929F3D92078DA
:100830006C280ED004DC4C2813D06A2812D104E0B6
:1008400074280ED07A280DD10BE001204005054315
:1008500007E00121090562780D43824201D16D183C
:10086000641C641C2078864669284AD008DC00286D
:10087000B4D058286DD0632810D0642808D140E047
:1008800070286BD0732812D0752860D0782860D07B
:10089000129A704611999047761CE5E038786946BF
:1008A00008720020487202A80190012003E0386815
:1008B00001900020C0433F1D69070CD5002500E0D2
:1008C0006D1C00998D420FDA8542F9DB0199495D73
:1008D0000029F5D108E0002500E06D1C8542FCDB15
:1008E0000199495D0029F8D1761907E0019801992D
:1008F0000078491C0191129A119990476D1EF5D20A
:10090000B2E00A20029000216802400F0391022801
:100910000CD001CFC117844600290DDA6246084683
:1009200052420021814194462D2008E0FF1DFF081E
:10093000FF0003CF8446EFE7280504D52B206A4645
:10094000107401203CE0E8073AD02020F7E70A20A5
:1009500000E0102000210391029007E01020029097
:100960000021042005430820039100906802400FF5
:10097000022810D001CF0021844600200D902807C6
:100980001FD5704670280CD0029A1020039B42405D
:100990001A430CD015E0FF1DFF08FF0003CF84466B
:1009A000EBE740206A46107401200D900CE0604691
:1009B000084306D030206A461074704650740220F6
:1009C0000D907046582804D029A001900DA80E90D3
:1009D0000DE02CA0F9E76046039B029AFFF79EFB0F
:1009E000019B84469B5C0E9A521E0E9213706046C9
:1009F0000843F0D10E9805A9081A20300190680725
:100A000001D5009801E0012000900199884203DDA2
:100A100001460198081A00E000200025009006E039
:100A200004A8129A405D119990476D1C761C0D9890
:100A30008542F5DB04E0129A302011999047761C2C
:100A40000099481E00900029F5DC08E00E980E99E8
:100A50000078491C0E91129A11999047761C0199C1
:100A6000481E01900029F1DC641CB4E6092801004D
:100A70003031323334353637383961626364656614
:100A800000000000303132333435363738394142D6
:100A9000434445460000000010B5FFF733FD10BD8C
:100AA00010B5FFF73DFD10BD10B5FFF7F5FF10BD08
:100AB000FFF706FDFFF7C2FBFFF713FD0020FFF76E
:100AC000A9FC0120FFF7A6FC0020FFF7DBFC0120BA
:100AD000FFF7CCFC164D0024284600E000BF401E66
:100AE000FCD20020FFF7DAFC0120FFF7D7FC641CE2
:100AF0000A2CF1DB002421460EA0FFF733FE641C14
:100B0000642CF8DB10A0FFF72DFEFFF7F9FC164868
:100B1000FFF7CAFF0146024614A0FFF723FEFFF7C6
:100B2000EFFC0020FFF7BAFC0120FFF7B7FCE9E774
:100B300080841E0048656C6C6F20576F726C642156
:100B40002025640D0A000000506C65617365206902
:100B50006E707574206B657920666F722070726993
:100B60006E74662E2E2E2E00040000200D0A596F82
:100B7000757220696E7075742069732025635B300F
:100B80007825785D0D0A0D0A0000000002020201BE
:100B900001010103030101010C010200004000807A
:100BA000020000100200040000000B4000200B4077
:100BB00000400B4000600B400000044000001000AB
:100BC0000600000020000600E80B000000000020E6
:100BD000080000009E070000F00B00000800002045
:100BE00000020000AE07000000000000000000004E
:04000005000000C136
:00000001FF
