:020000040000FA
:1000000008040020AD000000610F0000210A00007C
:10001000FFFFFFFFFFFFFFFFFFFFFFFFFFFFFFFFF0
:10002000FFFFFFFFFFFFFFFFFFFFFFFF25120000A5
:10003000FFFFFFFFFFFFFFFF191100005D1500002C
:10004000BF000000BF000000BF000000BF000000B4
:10005000BF000000BF000000BF000000FFFFFFFF67
:10006000BF000000FFFFFFFFBF000000FFFFFFFF1A
:1000700029080000BF000000BF000000BF00000012
:10008000BF000000D1010000BF000000BF00000061
:10009000BF000000BF000000BF000000E518000026
:1000A000FFFFFFFF4D180000A11800000448804723
:1000B00004480047FEE7FEE7FEE7FEE7FEE7FEE74F
:1000C00061150000C90000000348854600F030F8C3
:1000D00000480047691D00000804002030B50B46A9
:1000E000014600202022012409E00D46D5409D4212
:1000F00005D31D469540491B254695404019154698
:10010000521E002DF1DC30BD70B5002425460028BC
:1001100001DA01244042002901DA01254942FFF7B2
:10012000DDFFAC4200D04042002C00D0494270BDFF
:10013000064C0125064E05E0E36807CC2B430C3C3A
:1001400098471034B442F7D3FFF7C2FF541F0000A2
:10015000741F0000F0B596460A461349C0004618C1
:1001600000230025FF2098402C46104216D0002086
:10017000012199408C461146C1406746394206D05C
:1001800087000F21B9400D437146B9400C43401C14
:100190000828F0D33068A843204330600833361D68
:1001A000082BDEDDF0BD000020200240F8B5164629
:1001B0000D460024054F05E0297838466D1C01F0F6
:1001C000D2FB641CB442F7DB0120F8BD00100040F4
:1001D00070B5144C144A2078401CC1B221701078BC
:1001E000022318431070114BFF261888F536401C67
:1001F00080B200251880B04209D91D8010780423F0
:10020000184310700A48036A082633430362192909
:1002100004D325701078012108431070054800F0C0
:100220000BF870BD09000020020000200000002033
:1002300000200B40006007404168490849004160C8
:10024000BFF34F8F7047000010B503460022084CE3
:1002500010460146A34202D10122120404E0054CDB
:10026000A34201D101225204012300F0ADFF10BDD1
:10027000006007400070074004220029016801D097
:10028000114300E09143016070470029016802D0EA
:100290000122114301E04908490001607047C16033
:1002A00070478160704770B5054600290AD00C7808
:1002B000204600F0B9FF0121204601F0C9FD012DC3
:1002C00002D005E0002070BD0121204601F0E0FDD4
:1002D000012070BD10B50F204F2100040902024A11
:1002E000012300F0AFF810BD5101010003498968F6
:1002F000014201D001207047002070470080084073
:1003000070B5184D0446686B4607760F00F02EF85E
:1003100015492060330001F083FC08140507071419
:10032000140E1114606000E06160296A606805299C
:1003300009D3400908E00120C003F3E77D20000253
:10034000F0E70020EEE7C840A060A96A4903490F22
:10035000072902D0C840E06070BD0321FFF7BEFE50
:10036000F9E700000080084000127A0010B50D4A3D
:100370001068D0690121C30F5068400A08400FD0AF
:100380000948002B0CD19369DB0D1C07240F00D109
:10039000102492695202920F9140FFF79FFE604332
:1003A00010BD00000080084000127A001FB541090E
:1003B0000A4A89008A1800212E2800D10221C0068D
:1003C000C00E1268032383401A40C2405418684686
:1003D000FFF796FF029804B0E04010BD3880084057
:1003E0000248406B4007400F704700000080084003
:1003F00004494A680123DB029A43C00202434A606F
:10040000704700000080084003494A684B159A4332
:10041000400202434A6070470080084008490A6869
:100420008B159A4303791B021A430A60CA69437900
:1004300052005208DB071A43CA610068886170479E
:1004400000800840F0B5084F7C6AFD6A3E6B84432B
:100450008D439643002B02D004430D4316437C6228
:10046000FD623E63F0BD0000008008400149086263
:100470007047000000800840024600B50848FF2190
:100480004368DB08DB001343436005E0FFF7A8FF88
:10049000904201D1012000BD491EF7D1002000BDCE
:1004A0000080084070B50A4C1320657864214543EC
:1004B0001435A580A67828467043FFF70FFE6081AB
:1004C0006420801B68436421FFF71EFEE08070BD3E
:1004D000F801002010B5FF21212000F01BFC10BD09
:1004E00010B500F0FDFF10BD10B5002909D00C7843
:1004F000204600F0A5FE0121204601F0CFFA0120A0
:1005000010BD002010BD10B5002909D00C78204680
:1005100000F098FE0121204601F0E0FA012010BD14
:10052000002010BD03490A68D208D20002430A60C5
:100530007047000000020840F0B403460C79C87808
:10054000032C17D10C4C4E79A34213D10B4D002331
:10055000DC002C5DFF2C0DD0B44208D1DB005B1910
:100560005B68002B06D0F0BC891D083A18475B1C5D
:10057000DBB2EDE7F0BC7047F00000200C0000207B
:1005800070B5124D6879012802D00B2819D01AE0F5
:100590000F4C0121227889020E48012A0CD0012239
:1005A00000F03CF901202070207801F01DF920783E
:1005B000002101F08DFC06E00022227000F02EF9EF
:1005C000F2E700F04BFE3220687170BD020000209F
:1005D000F801002000200B40002A026801D00A43E5
:1005E00000E08A4302607047F0B5002425462346A8
:1005F000CE0706D05E001746B7403C430327B740FE
:100600003D4349085B1C102BF2D34169A94341616A
:10061000416921434161F0BDF8B501221021104626
:10062000FFF798FD012208211046FFF793FD674C64
:1006300002221021204600F0D7F80222082120468D
:1006400000F0D2F8002210212046FFF7CDFF002253
:1006500008212046FFF7C8FF012210212046FFF79E
:10066000BBFF012208212046FFF7B6FF0122D60377
:1006700031460020FFF76EFD012211461046FFF7BC
:1006800069FD0122970339460020FFF763FD01222F
:1006900002211046FFF75EFD4D4D022231462846ED
:1006A00000F0A2F802220121204600F09DF802226B
:1006B0003946284600F098F802221146204600F0FC
:1006C00093F8002231462846FFF78EFF00220121D1
:1006D0002046FFF789FF002239462846FFF784FFAE
:1006E000002202212046FFF77FFF012231462846E3
:1006F000FFF772FF012211462046FFF76DFF01222E
:1007000039462846FFF768FF012202212046FFF7FD
:1007100063FF012251021046FFF71CFD0222110265
:10072000204600F061F8002261152046FFF75CFFCB
:10073000002261152046FFF74FFF0122510220469B
:1007400000F04AF8012240210020FFF703FD0022BB
:100750004021284600F048F8002240212846FFF7B3
:100760003BFF01224021284600F036F80122910289
:100770001046FFF7EFFC00222115204600F034F868
:10078000002221152046FFF72FFF0122910220466B
:10079000FFF722FF286AB0432862206A4008400021
:1007A0002062286AB8432862206A022188432062B6
:1007B000206A102108432062206A08210843206231
:1007C0000449002088704870F8BD000000200B40EC
:1007D00000000B40F8010020002A426801D00A43C3
:1007E00000E08A4342607047002A08D0012A09D0FD
:1007F00082688A438260C2688A43C26070478268A6
:100800000A43F7E7C2680A43C26082688A4382608B
:100810007047C069084000D001207047002A01D00D
:10082000416270478162704710B50B4C0821204629
:1008300000F058FF00280DD00821204600F040FFAE
:10084000204600F04CFF05490988401881B2204637
:1008500000F0A6FF10BD000000E0064040000020B0
:10086000F0B500250122920789B028462C461114C4
:100870000123FFF7E7FDFF2701370D22394600204E
:10088000FFF768FC2148224E089000E0641C611CC0
:100890000898FFF723FCB042F8D8611C0898FFF7CE
:1008A0001DFC0646042240210120FFF753FC711E67
:1008B00068460182448205750695164C878304A913
:1008C000204600F071FF3946204600F0F4FE032177
:1008D00068460170062141800121017145718571D1
:1008E000C57105724172701C432148436421FFF7B2
:1008F000F5FB0146684641816946204600F0FEFE50
:100900000121204600F0E1FE09B0F0BD7F070000A4
:10091000FFFF000000E00640002809D0FF30013052
:1009200001684068814204DDFF22511A491C4018C9
:100930007047401A7047000010B5114C2046FFF771
:1009400083FC10487D21C9000068FFF7C7FB014602
:100950002046FFF7A4FC00212046FFF7A2FC01215E
:100960002046FFF792FC01212046FFF785FC01217C
:100970002046FFF78AFC012003494004086010BDAF
:10098000006007404400002000E100E030B58FB077
:10099000042280210120FFF7DDFB1F496846818585
:1009A0000024C48508A80474FF21013168460D9411
:1009B00001871A4D0BA9284600F0F6FE0121684672
:1009C00001770622C28308A8017044708470C47045
:1009D000047141716846C48407A9284600F08EFE60
:1009E00001204005009040100190C010029020208E
:1009F0000590039404946846047644766946284634
:100A000000F046FA0121284600F05FFE0121284649
:100A100000F052FA0FB030BD7F07000000C0024066
:100A2000FEE7000010B5104C002201212046FFF720
:100A3000F5FE012202212046FFF7CEFD0022022111
:100A40002046FFF7EBFE022001F04DF9012211468E
:100A50002046FFF7E3FE022001F045F900220121C4
:100A60002046FFF7DBFE10BD00000B4010B5104C18
:100A7000002201212046FFF7D1FE0122022120465B
:100A8000FFF7AAFD012202212046FFF7C7FE022040
:100A900001F029F9012211462046FFF7BFFE02208E
:100AA00001F021F9002201212046FFF7B7FE10BD19
:100AB00000000B4010B5044600F08AF8B42000F0A6
:100AC00053F800F0CDF8204600F04EF800F0C8F8DA
:100AD00000F07EF8B52000F047F800F0C1F80020E3
:100AE00000F006F8044600F097F8204610BD00001C
:100AF000F8B51C4E07460024224602213046FFF777
:100B00006BFD012202213046FFF766FE0025002220
:100B100001213046FFF782FE022001F0E4F80122B5
:100B200011463046FFF77AFE022001F0DCF860063D
:100B3000040E02213046FFF76CFE002801D0641C31
:100B4000E4B2012001F0CFF86D1CEDB2082DDED328
:100B5000002F03D0FFF766FF2046F8BDFFF786FFA2
:100B6000FAE7000000000B4070B5184E0546012260
:100B700002213046FFF730FD002201213046FFF709
:100B80004DFE0024E80901D0012200E000220221EC
:100B90003046FFF743FE6806050E022001F0A3F879
:100BA000012211463046FFF739FE022001F09BF882
:100BB000002201213046FFF731FE022001F093F8B8
:100BC000641CE4B2082CDDD370BD000000000B40B3
:100BD00010B5104C012202212046FFF71FFE012212
:100BE00011462046FFF71AFE012202212046FFF798
:100BF000F3FC042001F077F8002202212046FFF7E1
:100C00000DFE042001F06FF8002201212046FFF7BD
:100C100005FE10BD00000B4010B5104C0122022152
:100C20002046FFF7D9FC002201212046FFF7F6FD00
:100C3000002202212046FFF7F1FD042001F053F8C5
:100C4000012211462046FFF7E9FD0122022120463C
:100C5000FFF7E4FD042001F046F810BD00000B4052
:100C600070B5194D0024224602212846FFF7B4FC36
:100C7000012202212846FFF7AFFD0122022128466A
:100C8000FFF7CCFD012001F02EF801221146284685
:100C9000FFF7C4FD012001F026F807E0641CE4B270
:100CA000FA2C03D9FFF7B8FF012070BD02212846B6
:100CB000FFF7AFFD0128F1D0002201212846FFF700
:100CC000ADFD002070BD000000000B40F8B51646D9
:100CD0000F460546FFF77CFFB420FFF745FFFFF7FF
:100CE000BFFF04462846FFF73FFFFFF7B9FF001993
:100CF000C5B2002408E0385DFFF736FFFFF7B0FF0C
:100D00004019641CC5B2E4B2B442F4D3FFF784FFC7
:100D10002846F8BD70B50D460446FFF759FFB420CC
:100D2000FFF722FFFFF79CFF2046FFF71DFFFFF7AD
:100D300097FF2846FFF718FFFFF792FFFFF76CFFBA
:100D400070BD00001D480021C069800500D401214C
:100D50001B4A0020135C8B4203D0401CC0B2022807
:100D6000F8D30023174A002809D19178491E182981
:100D700001D2117951719370537032211171D17870
:100D8000814217D15178491CC9B25170502913D3EF
:100D9000537091781A2901D2491C9170C9B2012966
:100DA00002D0192902D007E0107105E001460A318E
:100DB000517101E093705370D070704700200B4068
:100DC000501F00000200002010B500F0FBF80028C2
:100DD000FBD100F0EBF8012000F0DAF8032040042A
:100DE00000F014F9012000F003F910BD30B5234ADA
:100DF000234C114615788889224B0989012D24D06E
:100E0000002901D0491E1181002801D0401E908187
:100E10001089E06191895961002815D1002913D109
:100E20001948016A0122D2039143016217490A6AF3
:100E3000520852000A62026A01239B039A4302622B
:100E4000086A02229043086230BDD5888D4201D9DC
:100E5000491C118111898D4201D2491E118151898C
:100E6000814201D9401C90819089814201D2401E6B
:100E700090811089E0619089586130BDF8010020AF
:100E800080E0064080C0024000000B4000200B4084
:100E900010B54A7E0B7E12021B0613430C688A684B
:100EA00022434C681C4322430C69CB6849692343A5
:100EB00011430B43036710BD10220029016F01D0BD
:100EC000114300E0914301677047F0B5059F079D0E
:100ED000069C002820D0F1260670F22646702E4689
:100EE00008368670C270D218D219037152190832AE
:100EF000D3B247710022801D07E02778077027785A
:100F0000401CFB18521CDBB2641CAA42F5DB0370C8
:100F1000F922427001200E60F0BD000010B50D48AE
:100F200000F066F90B48533000F062F90A490020DE
:100F30004881C8800949322248708870C8700A7197
:100F40004A718871C87108724872087000F0FCFE1E
:100F500010BD000048000020F80100200200002021
:100F6000704770B5054600290AD00C78204600F07D
:100F70003BFC0121204600F0ABFF012D02D005E033
:100F8000002070BD0121204600F0C2FF012070BD8D
:100F900005490028086902D00122104301E04008F9
:100FA000400008617047000000A106400449022289
:100FB0000028086901D0104300E0904308617047A1
:100FC00000A10640084A074801211160074902E0D4
:100FD0008A68272A03D0401EFAD1012070470020DA
:100FE0007047000000366E010083084000A10640F3
:100FF0000122054912040028086901D0104300E0CD
:10100000904308617047000000A10640034A11693F
:1010100023235B04994301431161704700A10640FB
:10102000F0B50021BDB004460E46002832D0E21DC6
:10103000F93205CA90422DD082422BD0235CFF2882
:1010400002D0F12B09D00FE0F12B0DD12378F22B38
:101050000AD107460121002006E023185B78F22B15
:1010600002D10746401C0121824213D0401CFF28B8
:1010700000DD002082420DD00129DFD1255C294608
:101080000839E82901D30021D8E72046FFF744FCBE
:10109000A84202DA00203DB0F0BD012000902B46AE
:1010A00001AA3946204600F038F80028F3D001AAFA
:1010B00050192038C07FF92803D000200223009067
:1010C00023E00220A91E03E0135C9B19DEB2401C42
:1010D0008842F9DB105CB04214D1002000902B460E
:1010E0003946204600F019F80028D4D00948016A92
:1010F0000822914301622A4601A92046FFF71CFA03
:101100000120C8E700202B4600903946204600F019
:1011100004F8F5E700200B407047F0B5059F002864
:101120001DD0002A1AD0C61DF93635687468AC4245
:1011300014D0AC4204DD8D4210DC8C420EDD0AE09E
:101140008C4201DC8D4209DC8C4204DAFF256D1AE9
:101150006D1C641900E0641A9C4201DA0020F0BDA5
:10116000002407E0455C1570491C521CFF2900DD76
:101170000021641C9C42F5DB002F00D1316001206E
:10118000F0BDF0B5944600281CD00024C31D2246B3
:10119000F93315E05D68FF2D03DB0E7846555A6084
:1011A00003E00F786E1C5E6047555E681D68491C41
:1011B000AE4204D16D1C1D60FF2D00DD1A60641C61
:1011C0006445E7DBF0BD0000F0B5084F7C68BD6802
:1011D000FE6884438D439643002B02D004430D43A5
:1011E00016437C60BD60FE60F0BD000000810840D9
:1011F00000210B464354421853762032491CC9B291
:1012000093741929F6D34030C37203734373837305
:10121000C373037443748374704710B5FFF74AFCBB
:10122000C0B210BD7047000010B504490A78012A09
:1012300002D14870FFF736F910BD0000F801002018
:101240007047000010B504490A78012A02D188705D
:10125000FFF728F910BD0000F801002070B59EB01E
:10126000012269460A7303A906206C4607C40223BB
:1012700003221DA904A8FFF728FE002404AD064E92
:1012800004E0295D304600F06EFB641C1D9884422A
:10129000F7DB1EB070BD00000010004010B5012249
:1012A00011463248FFF798F900210820FFF732FD78
:1012B00000210920FFF72EFD00F0D0F817210720AC
:1012C000FFF728FD06210F20FFF724FD01210B2049
:1012D00000F05BF804210C2000F057F801210220F7
:1012E00000F053F80321072000F04FF800210820F8
:1012F00000F04BF80021092000F047F800211220EF
:1013000000F043F80121112000F03FF800211F20D8
:1013100000F03BF801211E2000F037F803210E20D9
:1013200000F033F83121012000F02FF801210320D3
:10133000FFF7F0FC1D210420FFF7ECFC0021052045
:10134000FFF7E8FC00210620FFF7E4FCB9210820A4
:10135000FFF7E0FC08210920FFF7DCFC08210A2048
:10136000FFF7D8FC00F075F8002010BD00000B401E
:10137000C006C00E10B58030C0B200F06DFC002871
:1013800002D12E20FFF796FB10BDF8B50D4606469C
:1013900000F097FC002822D12020FFF78BFB0446A9
:1013A000F0066946C00E0D70A0304870022217206A
:1013B000FFF78CFC050012D12020FFF77BFB0146D4
:1013C00008E02020FFF776FB0146A04202D1012071
:1013D00000F06AF9A142F4D0002D01DA2846F8BDE8
:1013E0000020F8BD70B53020FFF764FB012803D062
:1013F000012000F059F9F6E7002500242020FFF72E
:1014000059FB00280AD000211820FFF783FC641C38
:10141000E4B2012000F048F9C82CEFD30B2000F013
:101420001BFC00242020FFF745FB002806D1641C8C
:10143000E4B2012000F038F9C82CF3D32020FFF7E4
:1014400039FB012803D06D1CEDB2C82DD5D3002087
:1014500070BD10B50F2000F0FFFB10BD10B50A20C5
:1014600000F022F90A2000F01FF900210820FFF700
:1014700051FC044600210920FFF74CFC0419FFF73A
:10148000B1FF041900210820FFF744FC04190021D2
:101490000420FFF73FFC041900210520FFF73AFC68
:1014A000041900210620FFF735FC04190021032050
:1014B000FFF730FC0419FF212120FFF72BFC041952
:1014C00001211820FFF726FC04190A2000F0ECF88F
:1014D00017210720FFF71EFC001900B210BD000005
:1014E0001CB51C48002404626521416201210904E5
:1014F0008162C46204638463C46317480460446007
:101500000120FEF775FF0820FEF7F0FE0028FAD054
:101510000320FEF7B1FF0120694608710320000691
:1015200000904C716846FEF779FF0120FEF76CFFD2
:101530000220FEF7DBFE0028FAD00220FEF7F2FFC1
:101540000020FEF793FF0120FEF796FF0128FAD155
:101550001CBD000000800840008308407047000068
:10156000F0B546480169002908D14169002905D133
:101570008169002902D1C069002877D0404B186BDF
:1015800010252843186340483E49016181680522BF
:101590000905090D1203891881603C494160186BE7
:1015A000A84318633A4901200860186B402630436D
:1015B0001863384881682729FCD158680121C9027D
:1015C000084358609868C008C007FBD05868C00836
:1015D000C000C01C5860586B4007400F0328FAD168
:1015E0002D4C2068C008C000401C206000201862FC
:1015F00059686015814359601868A7153843186009
:10160000264808228168914381608168C908C9071A
:10161000F8D1186BB0431863186838431860052078
:10162000C0059861586801214902084358609868CC
:101630004008C007FBD02068C008C000801C2060A4
:10164000002018625868C008C000401C5860586BE1
:101650004007400F0128FAD12068284320605868CD
:101660000121890288435860F0BDFFE7BFF34F8F27
:101670000C490B48C860BFF34F8FFEE700030840DA
:1016800000800840CA35000000800640D0A7000056
:101690000083084000A106400002084000A0064068
:1016A0000400FA0500ED00E064300006000E01D0F1
:1016B000401EFAE77047C943C167BFF34F8F7047B9
:1016C000C943C167BFF34F8F70470029016902D03A
:1016D0000122114301E0490849000161704780304F
:1016E000C0697047C26F406F0A400840002A03D0AB
:1016F000002801D00120704700207047F0B50C7819
:10170000A200121815461346A03290359446620680
:101710004033AE46120E03249440204DE443A842C9
:1017200002D001249440E4431C4E056D254005651C
:10173000456D2540B0428E7902D1CF797F003E437E
:1017400096402E434665154FB84208D1C66E4D7A75
:1017500026400C7A6D002C4394403443C4661C68C8
:10176000FF250835AC431C601C684D882C431C6069
:101770004C8973461C608C8963461C60B84206D154
:101780000B79497949000B439340016D02E0036DE9
:10179000097991400B430365F0BD000000C0024091
:1017A0008030C1617047000010B502460B8880325E
:1017B00093604B885360036803242404A3430360AD
:1017C000036801242406A343036003688C68234351
:1017D0000360044B984201D10B79D36089898167FA
:1017E00010BD000000C0024010B514490028087068
:1017F00022D08878002801D11420887048780028E9
:1018000003D132204870FEF74DFE0D4800210180C3
:1018100041800C48016A0122D203114301620A4946
:101820000A6A01231A430A62026A9B031A4302628C
:10183000086A02221043086210BD0000F80100206F
:101840003C00002000000B4000200B4010B50E4C67
:101850002021204600F04BF8002814D020212046FB
:1018600000F041F8204600F07BF80849CB7A0A46A0
:10187000273A9854012088740020C873C87A192820
:1018800001D2401CC87210BD00100040880000202A
:1018900010B50146014800F066F810BD0010044084
:1018A00010B50E4C2021204600F021F8002814D05D
:1018B0002021204600F017F8204600F051F8084992
:1018C000CB7A0A46273A9854012088740020C873BE
:1018D000C87A192801D2401CC87210BD00100440FB
:1018E000DB000020704702690A400261704700690E
:1018F000084000D00120704770B504460D46C888E6
:1019000089886268084329890E4B1A4011430843AD
:1019100069890843606001208007844201D1182052
:1019200003E00948844207D11C20FEF73FFD2968E7
:10193000FEF7D4FB606270BD04488442FBD11E20D8
:10194000F3E70000FCE0FFFF00100040001004403F
:10195000002AC26801D00A4300E08A43C26070478F
:10196000006880B2704710B50446016001E000F0E5
:1019700031F92169C905FAD510BD10238B404168A2
:10198000002A01D0194300E09943416070470000EC
:1019900014480022817C012901D0C2730CE0C17B74
:1019A000FF2901D2491CC173C9B2632904D9C17A84
:1019B0004174C272C27382740A485330817C012917
:1019C00001D0C2737047C17BFF2901D2491CC1738A
:1019D000C9B26329F6D9C17A4174C272C2738274E2
:1019E0007047000088000020FEB50622402102203A
:1019F000FEF7B0FB062280210220FEF7ABFB062299
:101A000010210020FEF7A6FB062220210020FEF771
:101A1000A1FBE1267602FF27013768460096878002
:101A20000024C48004811A4D448169462846FFF78A
:101A300063FF012211462846FFF78AFF0122002199
:101A40002846FFF79AFF012211462846FFF795FF27
:101A50006803104D2860684600968780C480048122
:101A600044810D4C69462046FFF746FF012211468E
:101A70002046FFF76DFF012200212046FFF77DFF82
:101A8000012211462046FFF778FFA0032860FEBD23
:101A90000010004000E100E00010044070B59EB06E
:101AA0006A4610735173022203A929206C4607C4A9
:101AB000134603221DA904A8FFF707FA002404AD6A
:101AC000054E04E0295D3046FFF74DFF641C1D986C
:101AD0008442F7DB1EB070BD0010004070B59EB0B0
:101AE0006A4610735173022203A92A206C4607C468
:101AF000134603221DA904A8FFF7E7F9002404AD4B
:101B0000054E04E0295D3046FFF72DFF641C1D984B
:101B10008442F7DB1EB070BD0010004010B5084CC9
:101B2000627C002A0AD0214627390648FFF729FBA4
:101B30000448FFF775FA0028FAD1607410BD000060
:101B400088000020F000002010B5084C617C0029BE
:101B50000AD0214640390818417E2030817404485B
:101B6000FFF701FF0020607410BD0000DB000020C3
:101B70000010044010B50320400300F03DF832206F
:101B800000F044F800F026F8322000F02BF8012095
:101B900000F012F8012000F001F810BD0122054903
:101BA00012040028486801D0104300E090434860C8
:101BB00070470000008006400349002801D0034818
:101BC00000E00348086170470080064035CA000005
:101BD000CA35000002490148086070470100A05F53
:101BE00000800640034A916807231B031940014304
:101BF000916070470080064003498A681205120D03
:101C000002438A607047000000800640034A516822
:101C10000F231B03194001435160704700800640A9
:101C200030B47446641E2578641CAB4200D21D4655
:101C3000635D5B00E31830BC184702E008C8121F60
:101C400008C1002AFAD170477047002001E001C1A5
:101C5000121F002AFBD1704770B5064600252020D0
:101C6000FEF728FF04002BD400F02BF840B2002828
:101C700026D1002E0BD02020FEF71CFFA04206D05C
:101C800000281DDB6D1CEDB20446C82DECD3314697
:101C90001820FFF73FF840B2002811D10025002E90
:101CA0000DD02020FEF706FFA04208D1002807DB58
:101CB0006D1CEDB20120FFF7F7FCC82DEFD300201B
:101CC00070BD10B500243020FEF7F4FE012808D0C6
:101CD000002807DB641CE4B20120FFF7E5FCC82CF8
:101CE000F1D3002010BD00BF00BF00BF00BF00BF88
:101CF00000BF00BF00BF00BF00BF00BF00BF00BFEC
:101D000000BF00BF00BF00BF00BF00BF00BF00BFDB
:101D100000BF00BF00BF00BF00BF00BF00BF00BFCB
:101D200000BF00BF00BF00BF00BF00BF00BF00BFBB
:101D300000BF00BF00BF00BF00BF00BF00BF00BFAB
:101D400000BF00BF00BF70470020054A0146115484
:101D5000401CFF28FBDD0348016041607047000024
:101D6000F0000020F001002008B5FEF7B9FBFEF7F7
:101D7000B1FAFFF729F8FFF7D1F8FEF74DFCFFF7AE
:101D800033FEFFF7F7FEFFF789FAFEF7D5FDFEF702
:101D9000FDFDFEF765FDFFF71DFF274E1027FFF73E
:101DA00019FF26490020264C08702078800712D59C
:101DB0002078FD2108402070FEF7C4FFFFF7E8FD02
:101DC000FFF714F81F48C0694006306A01D5384350
:101DD00000E0B8433062FEF7D3FB2078400725D5FA
:101DE0002078FB21084020702620FFF7C1FA272029
:101DF000FFF7BEFA2620FFF710FAC4B26846047057
:101E00002720FFF70AFAC5B268464570AA20FFF7F7
:101E10003FFD2846FFF73CFD2046FFF739FD0A4805
:101E200001780A48FFF79FFDFEF754FBFFF776FEA7
:101E3000FFF78AFEB3E7000000200B400B000020F4
:101E40000200002000000B400700002000100440AA
:101E500070B59EB06A4610735173022203A9242004
:101E60006C4607C4134603221DA904A8FFF72DF8EA
:101E7000002404AD054E04E0295D3046FFF773FDF4
:101E8000641C1D988442F7DB1EB070BD001000403A
:101E900070B59EB06A4610735173022203A92420C4
:101EA0006C4607C4012303221DA904A8FFF70DF8FF
:101EB000002404AD054E04E0295D3046FFF753FDD4
:101EC000641C1D988442F7DB1EB070BD00100040FA
:101ED00070B59EB06A4610735173022203A9232085
:101EE0006C4607C4134603221DA904A8FEF7EDFFA4
:101EF000002404AD054E04E0295D3046FFF733FDB4
:101F0000641C1D988442F7DB1EB070BD00100040B9
:101F100070B59EB06A4610735173022203A9232044
:101F20006C4607C4012303221DA904A8FEF7CDFFB8
:101F3000002404AD054E04E0295D3046FFF713FD93
:101F4000641C1D988442F7DB1EB070BD0010004079
:101F500000010000741F0000000000204800000085
:101F60003A1C0000BC1F000048000020C003000015
:101F70004A1C0000000000000000000000000000FB
:101F800020000000630F000021000000A7020000F5
:101F900027000000E90400002800000007050000F9
:101FA00002000000AD010000FF0000000000000082
:0C1FB0000000000000000000006CDC02DB
:04000005000000AD4A
:00000001FF
