:020000040000FA
:10000000E0030020AD000000DD0600001706000040
:10001000FFFFFFFFFFFFFFFFFFFFFFFFFFFFFFFFF0
:10002000FFFFFFFFFFFFFFFFFFFFFFFF870900004C
:10003000FFFFFFFFFFFFFFFF87080000090A000026
:10004000BF000000BF000000BF000000BF000000B4
:10005000BF000000BF000000BF000000FFFFFFFF67
:10006000BF000000FFFFFFFFBF000000FFFFFFFF1A
:10007000BF000000BF000000BF000000BF00000084
:10008000BF000000A9010000BF000000BF00000089
:10009000BF000000BF000000BF000000050C000012
:1000A000FFFFFFFF7D0B0000C10B000004488047ED
:1000B00004480047FEE7FEE7FEE7FEE7FEE7FEE74F
:1000C0000D0A0000C90000000348854600F01CF836
:1000D00000480047190F0000E003002030B50B4630
:1000E000014600202022012409E00D46D5409D4212
:1000F00005D31D469540491B254695404019154698
:10010000521E002DF1DC30BD064C0125064E05E0E7
:10011000E36807CC2B430C3C98471034B442F7D328
:10012000FFF7D6FFA4100000C4100000F0B59646FB
:100130000A461349C000461800230025FF209840B6
:100140002C46104216D00020012199408C461146C1
:10015000C1406746394206D087000F21B9400D43A0
:100160007146B9400C43401C0828F0D33068A843BE
:10017000204330600833361D082BDEDDF0BD000063
:1001800020200240F8B516460D460024054F05E034
:10019000297838466D1C00F076FD641CB442F7DB0C
:1001A0000120F8BD0010004010B50B49087802226C
:1001B00010430870094A1078401CC0B2107019280A
:1001C00005D30020107008780122104308700448FD
:1001D00000F008F810BD000000000020070000201B
:1001E000006007404168490849004160BFF34F8FF4
:1001F0007047000010B503460022084C1046014627
:10020000A34202D10122120404E0054CA34201D111
:1002100001225204012300F08DFB10BD0060074055
:100220000070074004220029016801D0114300E05A
:100230009143016070470029016802D001221143F7
:1002400001E04908490001607047C1607047816062
:10025000704770B5054600290AD00C78204600F09A
:1002600093FB0121204600F09DFE012D02D005E008
:10027000002070BD0121204600F0B4FE012070BDB9
:1002800010B50F204F2100040902024A012300F09B
:10029000AFF810BD5100010003498968014201D047
:1002A00001207047002070470080084070B5184D4D
:1002B0000446686B4607760F00F02EF8154920605B
:1002C000330000F0FDFD081405070714140E111487
:1002D000606000E06160296A6068052909D340090F
:1002E00008E00120C003F3E77D200002F0E70020D2
:1002F000EEE7C840A060A96A4903490F072902D068
:10030000C840E06070BD0321FFF7E8FEF9E7000098
:100310000080084000127A0010B50D4A1068D069BC
:100320000121C30F5068400A08400FD00948002B34
:100330000CD19369DB0D1C07240F00D110249269A6
:100340005202920F9140FFF7C9FE604310BD0000BA
:100350000080084000127A001FB541090A4A89004E
:100360008A1800212E2800D10221C006C00E126872
:10037000032383401A40C24054186846FFF796FF93
:10038000029804B0E04010BD388008400248406B3D
:100390004007400F704700000080084004494A6849
:1003A0000123DB029A43C00202434A607047000007
:1003B0000080084003494A684B159A4340020243B3
:1003C0004A6070470080084008490A688B159A43C4
:1003D00003791B021A430A60CA6943795200520822
:1003E000DB071A43CA6100688861704700800840D3
:1003F000F0B5084F7C6AFD6A3E6B84438D4396439B
:10040000002B02D004430D4316437C62FD623E6321
:10041000F0BD0000008008400149086270470000FC
:1004200000800840024600B50848FF214368DB0809
:10043000DB001343436005E0FFF7A8FF904201D1C2
:10044000012000BD491EF7D1002000BD00800840FA
:1004500010B500F09BFA10BD7047000003490A6810
:10046000D208D20002430A60704700000002084030
:10047000F0B403460C79C878032C17D10C4C4E7994
:10048000A34213D10B4D0023DC002C5DFF2C0DD0BB
:10049000B44208D1DB005B195B68002B06D0F0BCCE
:1004A000891D083A18475B1CDBB2EDE7F0BC7047CA
:1004B000D80000200C0000200320C0020047002AC2
:1004C000026801D00A4300E08A4302607047F0B539
:1004D000002425462346CE0706D05E001746B740C7
:1004E0003C430327B7403D4349085B1C102BF2D324
:1004F0004169A9434161416921434161F0BD000067
:1005000070B5012280211046FFF710FE154C022223
:100510008021204600F030F8002280212046FFF79D
:10052000D6FF012280212046FFF7C9FF0122550294
:1005300029461046FFF7FAFD02222946204600F020
:100540001BF8002229462046FFF7C1FF002229465A
:100550002046FFF7B4FF01222946204600F004F8A8
:1005600070BD000000200B40002A426801D00A4301
:1005700000E08A4342607047002A08D0012A09D06F
:1005800082688A438260C2688A43C2607047826818
:100590000A43F7E7C2680A43C26082688A438260FE
:1005A0007047002809D0FF3001300168406881425F
:1005B00004DDFF22511A491C40187047401A704749
:1005C00010B5114C2046FFF715FE10487D21C900DB
:1005D0000068FFF783FD01462046FFF736FE002145
:1005E0002046FFF734FE01212046FFF724FE0121BB
:1005F0002046FFF717FE01212046FFF71CFE0120D1
:1006000003494004086010BD006007402C00002032
:1006100000E100E07047FEE7704710B500F090F889
:100620000028FBD100F080F8012000F06FF80320D3
:10063000400400F0A9F8012000F098F810BD000077
:100640000248016A802291430162704700000B401A
:10065000F0B5059F079D069C002820D0F126067066
:10066000F22646702E4608368670C270D218D2190D
:10067000037152190832D3B247710022801D07E07E
:10068000277807702778401CFB18521CDBB2641CCB
:10069000AA42F5DB0370F922427001200E60F0BD22
:1006A00010B50C4800F05AF90A48533000F056F9DA
:1006B00009480021418141708170C170322202716C
:1006C00042718171C17101724172017000F014FCBC
:1006D00010BD00003000002000000020704770B501
:1006E000054600290AD00C78204600F045FA012181
:1006F000204600F097FC012D02D005E0002070BDDF
:100700000121204600F0AEFC012070BD0549002803
:10071000086902D00122104301E04008400008614E
:100720007047000000A10640044902220028086921
:1007300001D0104300E090430861704700A10640DB
:10074000084A074801211160074902E08A68272A00
:1007500003D0401EFAD101207047002070470000EE
:1007600000366E010083084000A1064001220549C1
:1007700012040028086901D0104300E0904308618A
:100780007047000000A10640034A116923235B045F
:10079000994301431161704700A10640F0B5002163
:1007A000BDB004460E46002832D0E21DF93205CA1B
:1007B00090422DD082422BD0235CFF2802D0F12B17
:1007C00009D00FE0F12B0DD12378F22B0AD1074687
:1007D0000121002006E023185B78F22B02D10746A6
:1007E000401C0121824213D0401CFF2800DD002064
:1007F00082420DD00129DFD1255C29460839E8293C
:1008000001D30021D8E72046FFF7CBFEA84202DA49
:1008100000203DB0F0BD012000902B4601AA3946D2
:10082000204600F031F80028F3D001AA50192038F2
:10083000C07FF92803D00020022300901EE0022090
:10084000A91E03E0135C9B19DEB2401C8842F9DB51
:10085000105CB0420FD1002000902B463946204654
:1008600000F012F80028D4D02A4601A92046FFF74C
:10087000FFFD0120CDE700202B46009039462046A1
:1008800000F002F8F5E77047F0B5059F00281DD08D
:10089000002A1AD0C61DF93635687468AC4214D0E7
:1008A000AC4204DD8D4210DC8C420EDD0AE08C424D
:1008B00001DC8D4209DC8C4204DAFF256D1A6D1CC7
:1008C000641900E0641A9C4201DA0020F0BD0024A3
:1008D00007E0455C1570491C521CFF2900DD002112
:1008E000641C9C42F5DB002F00D131600120F0BD7B
:1008F000F0B5944600281CD00024C31D2246F933CD
:1009000015E05D68FF2D03DB0E7846555A6003E065
:100910000F786E1C5E60475560CB491C083BAE42A9
:1009200004D16D1C1D60FF2D00DD1A60641C644540
:10093000E7DBF0BDF0B5084F7C68BD68FE68844316
:100940008D439643002B02D004430D4316437C6035
:10095000BD60FE60F0BD00000081084000210B4634
:100960004354421853762032491CC9B29374192952
:10097000F6D34030C372037343738373C37303743A
:100980004374837470477047704700001CB51C485F
:100990000024046265214162012109048162C4626C
:1009A00004638463C4631748046044600120FFF754
:1009B000F5FC0820FFF770FC0028FAD00320FFF7B1
:1009C00031FD0120694608710320000600904C713A
:1009D0006846FFF7F9FC0120FFF7ECFC0220FFF767
:1009E0005BFC0028FAD00220FFF738FD0020FFF75B
:1009F00013FD0120FFF716FD0128FAD11CBD0000F0
:100A0000008008400083084070470000F0B5464869
:100A10000169002908D14169002905D181690029AE
:100A200002D1C069002877D0404B186B10252843AD
:100A3000186340483E490161816805220905090D96
:100A40001203891881603C494160186BA843186300
:100A50003A4901200860186B402630431863384833
:100A600081682729FCD158680121C90208435860D0
:100A70009868C008C007FBD05868C008C000C01CF8
:100A80005860586B4007400F0328FAD12D4C20685E
:100A9000C008C000401C2060002018625968601522
:100AA000814359601868A715384318602648082202
:100AB0008168914381608168C908C907F8D1186BC2
:100AC000B04318631868384318600520C005986162
:100AD0005868012149020843586098684008C007D7
:100AE000FBD02068C008C000801C20600020186275
:100AF0005868C008C000401C5860586B4007400F41
:100B00000128FAD120682843206058680121890211
:100B100088435860F0BDFFE7BFF34F8F0C490B4887
:100B2000C860BFF34F8FFEE7000308400080084015
:100B3000CA35000000800640D0A7000000830840AE
:100B400000A106400002084000A006400400FA058B
:100B500000ED00E007480178C90709D0017849088D
:100B6000490001700146087AFF2801D2401C087232
:100B700070470000000000207047000010B50E4CC8
:100B80002021204600F043F8002814D020212046E0
:100B900000F039F8204600F073F80849CB7A0A468D
:100BA000273A9854012088740020C873C87A1928FD
:100BB00001D2401CC87210BD00100040700000201F
:100BC00010B50E4C2021204600F021F8002814D04A
:100BD0002021204600F017F8204600F051F808497F
:100BE000CB7A0A46273A9854012088740020C873AB
:100BF000C87A192801D2401CC87210BD00100440E8
:100C0000C3000020704702690A4002617047006912
:100C1000084000D00120704770B504460D46C888D2
:100C200089886268084329890E4B1A40114308439A
:100C300069890843606001208007844201D118203F
:100C400003E00948844207D11C20FFF785FB29688F
:100C5000FFF744FA606270BD04488442FBD11E2055
:100C6000F3E70000FCE0FFFF00100040001004402C
:100C7000002AC26801D00A4300E08A43C26070477C
:100C8000006880B2704710B50446016001E000F0D2
:100C9000F1F82169C905FAD510BD10238B404168D0
:100CA000002A01D0194300E09943416070470000D9
:100CB00014480022817C012901D0C2730CE0C17B61
:100CC000FF2901D2491CC173C9B2632904D9C17A71
:100CD0004174C272C27382740A485330817C012904
:100CE00001D0C2737047C17BFF2901D2491CC17377
:100CF000C9B26329F6D9C17A4174C272C2738274CF
:100D00007047000070000020FEB50622402102203E
:100D1000FFF70CFA062280210220FFF707FA0622CD
:100D200010210020FFF702FA062220210020FFF701
:100D3000FDF9E1267602FF27013768460096878095
:100D40000024C48004811A4D448169462846FFF777
:100D500063FF012211462846FFF78AFF0122002186
:100D60002846FFF79AFF012211462846FFF795FF14
:100D70006803104D2860684600968780C48004810F
:100D800044810D4C69462046FFF746FF012211467B
:100D90002046FFF76DFF012200212046FFF77DFF6F
:100DA000012211462046FFF778FFA0032860FEBD10
:100DB0000010004000E100E00010044010B5084CB5
:100DC000627C002A0AD0214627390648FFF790FDA9
:100DD0000448FFF7E3FC0028FAD1607410BD00005E
:100DE00070000020D800002010B5084C617C00295C
:100DF0000AD0214640390818417E203081740448C9
:100E0000FFF741FF0020607410BD0000C300002008
:100E10000010044010B50320400300F03DF83220DC
:100E200000F044F800F026F8322000F02BF8012002
:100E300000F012F8012000F001F810BD0122054970
:100E400012040028486801D0104300E09043486035
:100E500070470000008006400349002801D0034885
:100E600000E00348086170470080064035CA000072
:100E7000CA35000002490148086070470100A05FC0
:100E800000800640034A916807231B031940014371
:100E9000916070470080064003498A681205120D70
:100EA00002438A607047000000800640034A516890
:100EB0000F231B0319400143516070470080064017
:100EC00030B47446641E2578641CAB4200D21D46C3
:100ED000635D5B00E31830BC184702E008C8121FCE
:100EE00008C1002AFAD170477047002001E001C113
:100EF000121F002AFBD170470020054A01461154F9
:100F0000401CFF28FBDD0348016041607047000082
:100F1000D8000020D8010020FFF79AFAFFF7B0F9B7
:100F2000FFF77BFBFFF7BCFBFFF78AFBFFF7E8FA55
:100F3000FFF7EAFEFFF76EFFFFF742FBFFF76AFBE2
:100F4000FFF798FF124DFD270024124EFFF792FF86
:100F5000114804702878800706D528783840287012
:100F6000FFF75AFBFFF7A4FEFFF7A6FA3078282810
:100F700005D30A48347001780948FFF784FEFFF76B
:100F8000E9FDFFF71BFFFFF72FFFFFF765FADDE72E
:100F900000000020080000200900002005000020BB
:100FA0000010044070B59EB06A461073517302225F
:100FB00003A924206C4607C4134603221DA904A8D4
:100FC000FFF746FB002404AD054E04E0295D3046E2
:100FD000FFF759FE641C1D988442F7DB1EB070BDFC
:100FE0000010004070B59EB06A4610735173022223
:100FF00003A924206C4607C4012303221DA904A8C9
:10100000FFF726FB002404AD054E04E0295D3046C1
:10101000FFF739FE641C1D988442F7DB1EB070BDDB
:101020000010004070B59EB06A46107351730222E2
:1010300003A923206C4607C4134603221DA904A854
:10104000FFF706FB002404AD054E04E0295D3046A1
:10105000FFF719FE641C1D988442F7DB1EB070BDBB
:101060000010004070B59EB06A46107351730222A2
:1010700003A923206C4607C4012303221DA904A849
:10108000FFF7E6FA002404AD054E04E0295D304682
:10109000FFF7F9FD641C1D988442F7DB1EB070BD9C
:1010A00000100040C41000000000002030000000CC
:1010B000DA0E0000F410000030000020B003000041
:1010C000EA0E000000000000000000000000000028
:1010D00020000000DF060000210000005302000095
:1010E0000200000085010000FF0000000000000079
:0410F000005A62023E
:04000005000000AD4A
:00000001FF
